:100000000C949A000C94C2000C94C2000C94C20090
:100010000C94C2000C94C2000C94C2000C94C20058
:100020000C94C2000C94C2000C94C2000C945C0F9F
:100030000C94C2000C94C2000C94C2000C94C20038
:100040000C94BA0E0C94C2000C942A0F0C94040F5A
:100050000C94C2000C94C2000C94C2000C94C20018
:100060000C949B0D0C94C2000086227E6D00000251
:1000700030066300044080523F065B4F666D7D276B
:100080007F6F0000004800535F777F393F79713DF3
:1000900076061E693815373F7367316D783E2A1D25
:1000A000766E5B39640F0008205F7C585E7B316F91
:1000B00074040E753055545C7367506D781C2A1D9E
:1000C000766E47460670013F065B4F666D7D077F83
:1000D0006F777C395E797100000000240027002AC8
:1000E0000000000000250028002B00000000080090
:1000F00002010000030407000000000000000000EF
:100100000000002300260029000404040404040461
:1001100004020202020202030303030303010204B6
:100120000810204080010204081020010204081079
:1001300020005D1011241FBECFEFD8E0DEBFCDBF81
:1001400012E0A0E0B1E0EAE1F1E302C005900D9217
:10015000AC39B107D9F725E0ACE9B2E001C01D9296
:10016000AB36B207E1F710E0CAE9D0E004C021974E
:10017000FE010E944216C939D107C9F70E940D112C
:100180000C948B180C940000CF92DF92EF92FF92A8
:10019000CF93DF93B0913605A0E08111AB2F809112
:1001A000370590E0880F991FAC0141505F4FC09018
:1001B0003C05D0903D05E0903E05F0903F0530E0D5
:1001C00020E0FA01C591D491E881B90190E080E086
:1001D000EB23EA130AC02F5F3F4F6C157D058E0598
:1001E0009F0578F36FEF7FEFCB01DF91CF91FF9009
:1001F000EF90DF90CF900895E82FF0E0E15BFA4FA9
:100200006483A0914F05B0915005ED91FC91119739
:100210000480F581E02D482FCD0109942091290318
:10022000260F3327331F21323105ECF420914F0381
:10023000FC0190E080E0243069F082E00895A09114
:1002400029032191AC01495F5C4FA40FB52FB11D6B
:100250002C930196861798F380912903680F609379
:10026000290380E0089581E0089508950895089590
:10027000E091FE028091FD02E81730F4F0E0E352D5
:10028000FD4F808190E008958FEF9FEF089590914A
:10029000FE028091FD022FEF3FEF981748F4E92FFF
:1002A000F0E0E352FD4F208130E09F5F9093FE022B
:1002B000C90108958091FD029091FE02891B990B5E
:1002C0000895CF92DF92EF92FF920F931F93CF93F7
:1002D000DF937C01CB018A012091DC02222389F08B
:1002E000EB016B01C40ED51ECC15DD0569F06991DB
:1002F000D701ED91FC910190F081E02DC7010995A6
:10030000F3CF642F0E940E01C801DF91CF911F919E
:100310000F91FF90EF90DF90CF900895CF93DF93F0
:100320001F92CDB7DEB769832091DC022223F9F05A
:100330002091FF02203258F021E030E0FC013383AD
:10034000228390E080E00F90DF91CF91089580911B
:100350000003E82FF0E0E454FD4F998190838F5F14
:10036000809300038093FF0281E090E0ECCF61E096
:10037000CE0101960E940E01F7CF833081F028F460
:10038000813099F08230A9F008958730A9F0883043
:10039000C9F08430B1F4809180008F7D03C08091DA
:1003A00080008F7780938000089584B58F7784BD17
:1003B000089584B58F7DFBCF8091B0008F778093B7
:1003C000B00008958091B0008F7DF9CFCF93DF9377
:1003D000282F30E0F901E551FF4F8491F901E35EE8
:1003E000FE4FD491F901E75FFE4FC491CC23A1F0F9
:1003F00081110E94BD01EC2FF0E0EE0FFF1FE150D4
:10040000FF4FA591B491EC91ED2381E090E009F4C8
:1004100080E0DF91CF91089580E090E0FACF1F93C4
:10042000CF93DF93282F30E0F901E551FF4F8491FE
:10043000F901E35EFE4FD491F901E75FFE4FC491ED
:10044000CC23A9F0162F81110E94BD01EC2FF0E002
:10045000EE0FFF1FEF51FF4FA591B4918FB7F894A6
:10046000EC91111108C0D095DE23DC938FBFDF9192
:10047000CF911F910895DE2BF8CF10924F0381E0AA
:10048000809351031092500361E082E10E940F02B9
:1004900061E083E10E940F02E9EBF0E080818E7F52
:1004A000808380818D7F808388E48093B80085E499
:1004B0008093BC000895CF93DF9391E0909306035F
:1004C0008823B9F0C091B800D091BA008091BC00E7
:1004D0008A7B8093BC0060E082E10E940F0260E0B2
:1004E00083E10E940F020E943D02D093BA00C093A4
:1004F000B800DF91CF910895CF93DF9390E0FC0196
:10050000E35EFE4F2491875F9E4FFC018491882318
:10051000C9F090E0880F991FFC01E952FF4FA591A7
:10052000B491FC01EF51FF4FC591D49161110DC001
:100530009FB7F8948C91209582238C9388812823EF
:1005400028839FBFDF91CF910895623051F49FB708
:10055000F8943C91822F809583238C93E8812E2BF5
:10056000EFCF8FB7F894EC912E2B2C938FBFEACF5F
:100570001F93CF93DF93182FEB0161E00E947C0261
:10058000209739F460E0812FDF91CF911F910C9477
:100590000F02CF3FD10511F461E0F5CFE12FF0E07C
:1005A000E551FF4FE491E33031F140F4E130B1F037
:1005B000E230E1F0C038D1057CF7E4CFE73029F133
:1005C000E83059F1E430B1F7809180008062809387
:1005D0008000D0938B00C0938A0004C084B58068EB
:1005E00084BDC7BDDF91CF911F91089584B580620E
:1005F00084BDC8BDF7CF8091800080688093800063
:10060000D0938900C0938800EDCF8091B0008068BE
:100610008093B000C093B300E5CF8091B0008062BA
:100620008093B000C093B400DDCF8E3008F08E50C0
:100630008770806480937C0080917A0080648093CE
:100640007A0080917A0086FDFCCF809178009091AD
:10065000790008953FB7F8948091B8029091B9025B
:10066000A091BA02B091BB0226B5A89B05C02F3F4E
:1006700019F00196A11DB11D3FBFBA2FA92F982FC8
:100680008827BC01CD01620F711D811D911D42E0C3
:10069000660F771F881F991F4A95D1F708958F928B
:1006A0009F92AF92BF92CF92DF92EF92FF926B0137
:1006B0007C010E942A034B015C01C114D104E104B6
:1006C000F104B9F00E942A03681979098A099B0983
:1006D000683E73408105910580F321E0C21AD1087C
:1006E000E108F10888EE880E83E0981EA11CB11C79
:1006F000E4CFFF90EF90DF90CF90BF90AF909F90AE
:100700008F9008952FB7F8946091B4027091B5025C
:100710008091B6029091B7022FBF0895CF92DF92D9
:10072000EF92FF920F931F93CF93DF93CDB7DEB776
:10073000C054D1400FB6F894DEBF0FBECDBF0E94AB
:100740008203009138051091390520913A053091C6
:100750003B056B017C01C01AD10AE20AF30A97013A
:100760008601003D17402105310590F48091400538
:10077000C05CDE4F0FB6F894DEBF0FBECDBFDF9179
:10078000CF911F910F91FF90EF90DF90CF90089540
:10079000609338057093390580933A0590933B0533
:1007A00010923305109232051092310510923005E7
:1007B00010922F0562E0809134050E947C0261E076
:1007C00070E080E090E00E944F0361E0809134058A
:1007D0000E947C0260E0809134050E940F028091AB
:1007E00035058551823020F58BE291E10197F1F7D3
:1007F00062E0809134050E947C028091410590E086
:100800008230910538F0880F991F880F991F05973E
:100810000197F1F7F89480E00E94C4006F3F7F4F8A
:100820008F4F9F4F61F410924005789480E0A0CFE5
:1008300064E170E080E090E00E944F03D9CF81E056
:100840000E94C4006F3F7F4F8F4F9F4F61F38E0117
:100850000F5F1F4F6E012FEBC21A2EEFD20A7801E5
:1008600080E00E94C400F7016083718382839383D8
:1008700081E00E94C400F7016483758386839783B7
:10088000F8E0EF0EF11CEC14FD0451F7789430E021
:1008900020E0F801C080D180E280F380448155815E
:1008A00066817781FFEFCF16DF06EF06FF0631F096
:1008B0004F3F8FEF58076807780719F410924005EB
:1008C000B5CFF90183E0F595E7958A95E1F7E15D0C
:1008D000FA4F8081880FC416D506E606F70610F198
:1008E00080832F5F3F4F085F1F4F2832310589F605
:1008F0004091330520912F0580913005280F332733
:10090000331F80913105280F311D80913205820FF0
:10091000932F911D99274817190681F681E080933E
:10092000400526CF8160DCCFAF92BF92CF92DF929D
:10093000EF92FF920F931F93CF93DF936C017B0194
:100940008B01040F151FEB015E01AE18BF08C01725
:10095000D10759F06991D601ED91FC910190F08198
:10096000E02DC6010995892B79F7C501DF91CF915B
:100970001F910F91FF90EF90DF90CF90BF90AF90BD
:100980000895FC01538D448D252F30E0842F90E095
:10099000821B930B541710F0CF960895019708957A
:1009A000FC01918D828D981761F0A28DAE0FBF2F43
:1009B000B11D5D968C91928D9F5F9F73928F90E099
:1009C00008958FEF9FEF0895FC01918D828D981708
:1009D00031F0828DE80FF11D858D90E008958FEF45
:1009E0009FEF0895FC01918D228D892F90E0805C0E
:1009F0009F4F821B91098F739927089581E893E097
:100A00000E94F20421E0892B09F420E0822F08954E
:100A100080E090E0892B29F00E94FE0481110C9463
:100A200000000895FC01A48DA80FB92FB11DA35A91
:100A3000BF4F2C91848D90E001968F739927848FFE
:100A4000A689B7892C93A089B1898C918370806421
:100A50008C93938D848D981306C00288F389E02DC2
:100A600080818F7D80830895EF92FF920F931F9373
:100A7000CF93DF93EC0181E0888F9B8D8C8D981351
:100A80001AC0E889F989808185FF15C09FB7F8945D
:100A9000EE89FF896083E889F989808183708064A9
:100AA00080839FBF81E090E0DF91CF911F910F91F4
:100AB000FF90EF900895F62E0B8D10E00F5F1F4F03
:100AC0000F731127E02E8C8D8E110CC00FB607FC12
:100AD000FACFE889F989808185FFF5CFCE010E94A0
:100AE0001205F1CFEB8DEC0FFD2FF11DE35AFF4FF7
:100AF000F0829FB7F8940B8FEA89FB89808180622E
:100B0000CFCFCF93DF93EC01888D8823B9F0AA89EA
:100B1000BB89E889F9898C9185FD03C0808186FDB8
:100B20000DC00FB607FCF7CF8C9185FFF2CF808107
:100B300085FFEDCFCE010E941205E9CFDF91CF9165
:100B40000895CF92DF92EF92FF921F93CF93DF939E
:100B5000EC0160E08D810E947C0261E08D810E9449
:100B60000F0298E0C92ED12C10E0E12EF12CF59463
:100B7000E7941E2D60E08E810E940F02E881F981CA
:100B8000028CF38DE02DCE0109958D810E94E60146
:100B9000892B09F0106861E08E810E940F02E881C4
:100BA000F981028CF38DE02DCE01099581E0C81A00
:100BB000D108D9F661E08D810E947C0260E08D81D0
:100BC0000E940F02812FDF91CF911F91FF90EF9034
:100BD000DF90CF9008950F931F93CF93DF93EC0195
:100BE000162F042FE881F98102A0F3A1E02D64E41F
:100BF0000995E881F981048CF58DE02DCE010995E8
:100C0000612F606CE881F98100A0F1A1E02DCE0197
:100C10000995E881F98100A0F1A1E02D602FCE01B6
:100C20000995E881F981068CF78DE02DCE01DF91E1
:100C3000CF911F910F9109941F93CF93DF93EC01F4
:100C4000162FE881F981048CF58DE02D0995E88156
:100C5000F98100A0F1A1E02D612FCE010995E88175
:100C6000F981068CF78DE02DCE01DF91CF911F9198
:100C70000994FF920F931F93CF93DF93EC01F62E0D
:100C800008E010E060E08E810E940F02E881F981A7
:100C9000028CF38DE02DCE0109956F2D61708D8151
:100CA0000E940F02E881F981028CF38DE02DCE01C4
:100CB0000995F69461E08E810E940F02E881F98126
:100CC000028CF38DE02DCE01099501501109D1F66A
:100CD000E881F981028CF38DE02DCE01DF91CF9177
:100CE0001F910F91FF900994CF93DF93EC0161E086
:100CF0008F810E940F02E881F981028CF38DE02D33
:100D0000CE01DF91CF910994CF93DF93EC0160E0A6
:100D10008F810E940F02E881F981028CF38DE02D12
:100D2000CE01DF91CF91099460E070E0CB0108958E
:100D3000FC01848108957F928F929F92AF92BF921F
:100D4000CF92DF92EF92FF920F931F93CF93DF9397
:100D50007C016A01722E8B01D0E0C0E0A22EB12C82
:100D600088248394912CD70114968C9190E09C0157
:100D70002A193B09C217D3070CF5F80141918F01DD
:100D80004423E1F08C1B9D0B0197940102C0220FBC
:100D9000331F8A95E2F7C9018C219D2121E0892B1F
:100DA00009F420E06C2F670DD701ED91FC910688C6
:100DB000F789E02DC70109952196D5CFDF91CF9115
:100DC0001F910F91FF90EF90DF90CF90BF90AF9069
:100DD0009F908F907F900895CF92DF92EF92FF9235
:100DE0000F931F93CF93DF937C016B01042F10E0CF
:100DF000D0E0C0E0C017D10781F0F601EC0FFD1F75
:100E00004491D701ED91FC910288F389E02D20E017
:100E10006C2FC70109952196EDCFDF91CF911F91DE
:100E20000F91FF90EF90DF90CF90089540E160E048
:100E300071E083E695E00C94EC0640E160E171E03E
:100E400083E695E00C94EC0640E160E271E083E615
:100E500095E00C94EC0640E160E371E083E695E0F8
:100E60000C94EC0640E160E471E083E695E00C94BC
:100E7000EC0640E160E571E083E695E00C94EC0659
:100E8000242FDC01ED91FC910288F389E02D40E0F4
:100E900009949F92AF92BF92CF92DF92EF92FF920E
:100EA0000F931F93CF93DF937C01C1E0C42ED12C0D
:100EB0008AE0A82EB12CD70114964C914C17F0F073
:100EC00096010C2E02C0359527950A94E2F7217001
:100ED0004C1BCB01B5010E941316962ED72FD701BC
:100EE000ED91FC910084F185E02D07EC10E0682F76
:100EF000C7010995692D7D2FCF5FDDCFDF91CF91A0
:100F00001F910F91FF90EF90DF90CF90BF90AF9027
:100F10009F9008950F931F93E62F642FEF70E00FBB
:100F2000F12FF11D4491DC01ED91FC910288F389D0
:100F3000E02D1F910F910994E42F440FFF0BE85B04
:100F4000FF4F4491DC01ED91FC910288F389E02D83
:100F50000994362FDC01ED91FC910480F581E02DA0
:100F600060E0211160E8642B432F09940895242F39
:100F7000DC0112963C911297431740F4ED91FC91DD
:100F800004A0F5A1E02D462F622F099408950F9338
:100F90001F93CF93DF93EC01E881F98102A0F3A1C5
:100FA000E02D60E40995E881F981048CF58DE02D50
:100FB000CE010995E881F98100A0F1A1E02D60EC56
:100FC000CE01099510E000E0E881F9818A8180175F
:100FD0001106A9F0A4F000A0F1A1E02D60E0CE017F
:100FE00009958B81893040F0E881F98100A0F1A159
:100FF000E02D60E0CE0109950F5F1F4FE5CF068C15
:10100000F78DE02DCE01DF91CF911F910F910994C3
:10101000DC01ED91FC9102A0F3A1E02D611106C06D
:1010200060E8483008F047E0642B099468E8F9CF9D
:10103000CF93DF93EC010E94390660E08E810E941D
:101040000F0260E08D810E940F02E881F981028C1D
:10105000F38DE02DCE01DF91CF910994CF93DF93F3
:10106000EC0161E08E810E940F0261E08D810E949F
:101070000F02E881F981028CF38DE02DCE01DF9122
:10108000CF910994CF93DF93EC0160E08D810E94B2
:101090000F0260E08E810E940F02E881F981028CCC
:1010A000F38DE02DCE01DF91CF910994CF92DF92A5
:1010B000EF92FF920F931F93CF93DF93FC01C481B4
:1010C00021E02093DC02C0939E0210920003109254
:1010D000FF028485682B85E793E00E948E01D09102
:1010E000FF02D13208F092C00E942A036B017C01FA
:1010F00080914F03811165C082E080934F0381E0AE
:10110000809351038FEF80934E0310927303D0931B
:101110007203ACEBB2E0E2E5F3E080E0D81385C007
:101120001092740380917403CC0FC82BC093740386
:1011300080915003813009F07CC0109250030E94CE
:101140002A036B017C01809174038093BB00809122
:10115000020390910303A0910403B0910503892B2E
:101160008A2B8B2B99F00E942A0300910203109185
:10117000030320910403309105036C197D098E0946
:101180009F090617170728073907E0F18091BC006F
:1011900083FDD9CF85EC8093BC000E942A036B01AC
:1011A0007C0180914F03823009F445C080914E0349
:1011B0008F3F61F180914E03803241F180914E0367
:1011C00025C08091020390910303A0910403B09184
:1011D0000503892B8A2B8B2B09F48ACF0E942A03C3
:1011E0000091020310910303209104033091050341
:1011F0006C197D098E099F090617170728073907FB
:1012000008F076CF809101030E945B0210920003E8
:101210001092FF021092DC02DF91CF911F910F918B
:10122000FF90EF90DF90CF9008959D9191938F5F05
:1012300075CF85EEB0CF8091020390910303A0910A
:101240000403B0910503892B8A2B8B2B09F4A9CFBA
:101250000E942A03009102031091030320910403CA
:10126000309105036C197D098E099F090617170730
:101270002807390708F095CFC5CF089590E080E0A2
:1012800008950F931F93CF93DF93FC0120812223B6
:10129000F9F0EC010E94820309811A812B813C81C3
:1012A000AB01BC01401B510B620B730B8D819E8106
:1012B000B0E0A0E0481759076A077B0748F0EF81C4
:1012C000F88509950E94820369837A838B839C83C6
:1012D000DF91CF911F910F910895AF92BF92CF925E
:1012E000DF92EF92FF920F931F93CF93DF932BE048
:1012F000289FE001299FD00D1124CC50DE4F8E0194
:10130000000F111F000F111F05501109CE0168E1D8
:101310007CEF0E9413166B0184E1C80ED11C0D2CCA
:10132000000CEE08FF0893E3A92EB12CD0939D0288
:10133000C0939C0261E089E00E940F02C8010197FE
:10134000F1F760E089E00E940F02C701B6010E9438
:101350004F0381E0A81AB10849F7DF91CF911F919F
:101360000F91FF90EF90DF90CF90BF90AF900895D6
:1013700061E08CE00E940F026FEF70E083E00E945A
:10138000B80260E08DE00E940F026FEF70E08BE02A
:101390000C94B80260E08CE00E940F026FEF70E0E6
:1013A00083E00E94B80261E08DE00E940F026FEFBF
:1013B00070E08BE00C94B8026091A0017091A101E3
:1013C00082E00E94B80261E08CE00E940F026FEFA1
:1013D00070E083E00E94B80261E08DE00E940F029D
:1013E0006FEF70E08BE00C94B80285ED8093BC0049
:1013F0008091020390910303A0910403B09105032F
:101400000796A11DB11D23E0B695A79597958795E1
:101410002A95D1F72091BC0024FD03C010924F0300
:101420000895409102035091030360910403709169
:101430000503452B462B472B69F30097A105B10502
:1014400041F025E32A95F1F700000197A109B109C0
:10145000E1CF809101030C945B02FB01019000201D
:10146000E9F73197AF01461B570BDC01ED91FC9179
:101470000280F381E02D09948F929F92AF92BF92E8
:10148000EF92FF920F931F93CF93DF93CDB7DEB709
:10149000A1970FB6F894DEBF0FBECDBF7C01FA0155
:1014A000CB0119A2223008F42AE08E010F5D1F4FF4
:1014B000822E912CB12CA12CBF01A50194010E9478
:1014C000E215F901CA016A300CF5605DD8016E932E
:1014D0008D01232B242B252B79F790E080E01097AA
:1014E00021F0BD01C7010E942D0AA1960FB6F89404
:1014F000DEBF0FBECDBFDF91CF911F910F91FF9047
:10150000EF90BF90AF909F908F900895695CDECF71
:101510002F923F924F925F926F927F928F929F9203
:10152000AF92BF92CF92DF92EF92FF921F93CF9331
:10153000DF93EC016A017B01722EAB019601CB01B6
:10154000B6010E94861866E372E0811126C046014A
:101550005701E894B7F82FEF3FEF4FE75FE7C5017A
:10156000B4010E94861881110CC02FEF3FEF4FE7A6
:101570005FE7C501B4010E94B5166AE372E0181670
:1015800064F02FEF3FEF4FE75FE4C701B6010E9421
:1015900014181816B4F46EE372E0CE01DF91CF9107
:1015A0001F91FF90EF90DF90CF90BF90AF909F90F2
:1015B0008F907F906F905F904F903F902F900C9402
:1015C0002D0A2FEF3FEF4FE75FECC701B6010E94F6
:1015D000B51687FDE0CF20E030E0A901C701B601D4
:1015E0000E94B516312C212C87FF0DC0E881F981AE
:1015F0000190F081E02D6DE2CE0109951C01F7FA12
:10160000F094F7F8F09410E060E070E080E09FE381
:10161000711641F020E030E040E251E40E94BA1639
:101620001F5FF6CFA70196010E9449162B013C01CE
:101630000E9433174B015C012AE0BC01A401CE01DA
:101640000E943C0A7C01E20CF31C1123E1F1C5016C
:10165000B4010E9462179B01AC01C301B2010E9458
:1016600048164B015C01E881F9810190F081E02D81
:101670006EE2CE010995E80EF91E115020F120E02E
:1016800030E040E251E4C501B4010E9419182B0179
:101690003C010E9433174B01B12CA12C2AE0B5016B
:1016A000A401CE010E943C0AE80EF91EC501B40156
:1016B0000E9462179B01AC01C301B2010E9448164F
:1016C0004B015C01DACFC701DF91CF911F91FF90F1
:1016D000EF90DF90CF90BF90AF909F908F907F90D2
:1016E0006F905F904F903F902F9008950F931F93AE
:1016F000CF938C01C62F0E9456086C2F6460C801DE
:101700000E9456086C2F6B7FC8010E94560883EC1C
:1017100090E00197F1F7CF911F910F9108950F93EA
:101720001F93CF93DF938C01D62FC42F607F642B40
:101730000E94760B80E1D89FB00111246C2BC80168
:10174000DF91CF911F910F910C94760BCF93DF9384
:10175000CDB7DEB728970FB6F894DEBF0FBECDBF6A
:1017600098E0E6EAF1E0DE01119601900D929A957B
:10177000E1F790914A05961708F46FEF262F30E0B5
:10178000220F331F41E050E04C0F5D1F240F351F27
:10179000F9016081680F606840E082E495E0289676
:1017A0000FB6F894DEBF0FBECDBFDF91CF910C9482
:1017B0008F0B8F929F92AF92BF92CF92DF92EF9258
:1017C000FF92CF930E948E03882349F080913505C4
:1017D0008B3028F08D3050F085518230C8F1812C4B
:1017E000912C20ECA22E2FE7B22E1EC06091300566
:1017F00070E090E080E00E9464172DEC3CEC4CEC33
:101800005DE30E9419186B017C0160912F0570E067
:1018100090E080E00E9464179B01AC01C701B60113
:101820000E9449164B015C010E948E03882309F433
:1018300074C0809135058C3009F484C0D8F48B30A5
:1018400091F1C12CD12C80ECE82E8FE7F82E55C0F9
:1018500060912F057091300576276727762790E0F5
:1018600080E00E9462172DEC3CEC4CEC5DE30E94A2
:101870001918D8CF8551823020F7C09131056C2FCF
:1018800070E0762F662766277F7780913205682B78
:1018900090E080E00E9462172DEC3CEC4CEC5DE3A4
:1018A0000E9419186BC06091310570E090E080E0F3
:1018B0000E9462176B017C01C0913205C7FF0AC00C
:1018C000AC019B0160E070E080E89FEB0E9448164D
:1018D0006B017C01CF706C2F70E090E080E00E9483
:1018E00064172DEC3CEC4CEC5DE30E941918A70149
:1018F00096010E9449166B017C01A5019401C50166
:10190000B4010E948618811108C0A7019601C70181
:10191000B6010E9486188823D1F162E472E081E862
:1019200093E00E942D0A62E672E081E893E0CF9195
:10193000FF90EF90DF90CF90BF90AF909F908F90EF
:101940000C942D0AC09131056C2F70E090E080E07E
:101950000E9462176B017C01609132056F7070E02C
:1019600090E080E00E9464172DEC3CEC4CEC5DE3D1
:101970000E941918A70196010E9449166B017C016B
:10198000C7FFBBCFF7FAF094F7F8F094B6CF65E64F
:1019900072E081E893E00E942D0A22E0B501A401E3
:1019A00081E893E00E94880A62E672E081E893E0B1
:1019B0000E942D0A60E772E081E893E00E942D0A00
:1019C00022E0B701A60181E893E00E94880A62E65E
:1019D00072E081E893E00E942D0A60E080E00E94BE
:1019E000A60B6EE772E082E495E00E942D0A22E0E9
:1019F000B701A60182E495E00E94880A61E872E0DE
:101A000082E495E00E942D0A22E0B501A40182E45F
:101A100095E00E94880A65E872E082E495E087CF4D
:101A200040E061E082E495E00E948F0B8BE39FE150
:101A30000197F1F780914B05882321F060E080E069
:101A40000C94A60B089541E00E948F0B81E090E07A
:101A500008950F931F93CF93DF938B0198E0899F95
:101A6000B0011124606440E082E495E00E948F0B95
:101A7000E801085F1F4F699182E495E00E94230D01
:101A8000C017D107C1F7DF91CF911F910F91089532
:101A9000CF92DF92EF92FF920F931F9360E081E06D
:101AA0000E940F0283E090E00197F1F761E081E08E
:101AB0000E940F0283E290E00197F1F760E081E07D
:101AC0000E940F02EDE1F1E06491E9E0F1E0E491C0
:101AD000F0E0EE0FFF1FE150FF4F8591949100E47D
:101AE00012E42FE030E0462F0E9418106B017C01B9
:101AF000C114D104E104F10439F08FEFC81AD80AF7
:101B0000E80AF80A8FE0F8226AE070E080E090E0EE
:101B10000E944F03C701B6010E94621720E030E027
:101B200048E652E40E94BA161F910F91FF90EF9081
:101B3000DF90CF9008951F920F920FB60F9211244D
:101B40002F933F934F935F936F937F938F939F93C5
:101B5000AF93BF93EF93FF938091B900887F803656
:101B600009F44AC0F0F5883209F4A7C018F58031AD
:101B700009F49BC0B8F4882309F4F9C0883009F44B
:101B800094C0FF91EF91BF91AF919F918F917F9101
:101B90006F915F914F913F912F910F900FBE0F90DA
:101BA0001F901895883109F488C0803251F78093CE
:101BB0004E0314C0803409F49DC040F48033B9F35F
:101BC0008833F9F680934E0385ECB0C0803509F474
:101BD00085C0883509F496C0883499F60E94F509C5
:101BE000D0CF883909F48CC038F5883729F050F403
:101BF000883611F0803729F683E080934F031092E6
:101C00004D0357C0883809F47BC0803919F08038FB
:101C100009F0B7CF80914D03803208F071C0E09198
:101C20004D0381E08E0F80934D038091BB00F0E067
:101C3000E35DFC4F80833DC0803B39F0E0F4803AA7
:101C400009F479C0883A09F09CCF84E080934F036F
:101C500010922A0310922903E0912703F0912803A0
:101C600009958091290381110FC081E08093290398
:101C70001092070309C0803C09F4A6CF883C09F400
:101C8000A3CF883B09F07DCFE0912A0381E08E0F3E
:101C900080932A03F0E0E95FFC4F80818093BB00D2
:101CA00090912A038091290329C080917403809325
:101CB000BB0085EC8093BC0064CF9091730380914E
:101CC0007203981758F5E091730381E08E0F8093AB
:101CD0007303F0E0EE5AFC4F8081E9CFE09173038B
:101CE00081E08E0F809373038091BB00F0E0EE5A89
:101CF000FC4F808390917303809172039817C8F210
:101D000085E8D8CFE091730381E08E0F8093730351
:101D10008091BB00F0E0EE5AFC4F8083809151032C
:101D200081115CCF81E08093500384EA8093BC00F2
:101D300010924F0326CF85EC8093BC0010924F0386
:101D400080914D03803230F4E0914D03F0E0E35D8B
:101D5000FC4F108260914D0370E0E0912B03F091F5
:101D60002C038DE293E0099510924D030ACF109257
:101D70004E0334CF1F920F920FB60F9211242F9360
:101D80003F938F939F93AF93BF938091B4029091B1
:101D9000B502A091B602B091B7023091B30223E030
:101DA000230F2D3758F50196A11DB11D2093B302C5
:101DB0008093B4029093B502A093B602B093B70299
:101DC0008091B8029091B902A091BA02B091BB0281
:101DD0000196A11DB11D8093B8029093B902A09302
:101DE000BA02B093BB02BF91AF919F918F913F9187
:101DF0002F910F900FBE0F901F90189526E8230F7C
:101E00000296A11DB11DD2CF1F920F920FB60F9255
:101E100011242F933F934F935F936F937F938F93EF
:101E20009F93AF93BF93EF93FF9381E893E00E945A
:101E30001205FF91EF91BF91AF919F918F917F918B
:101E40006F915F914F913F912F910F900FBE0F9027
:101E50001F9018951F920F920FB60F9211242F9377
:101E60008F939F93EF93FF93E0919103F0919203EF
:101E70008081E0919703F091980382FD1BC09081CF
:101E800080919A038F5F8F7320919B03821741F09B
:101E9000E0919A03F0E0EF57FC4F958F80939A03FF
:101EA000FF91EF919F918F912F910F900FBE0F9007
:101EB0001F9018958081F4CF1F920F920FB60F924A
:101EC00011242F933F934F935F936F937F938F933F
:101ED0009F93AF93BF93EF93FF9380911F040E9452
:101EE000E60120912304309124042F5F3F4F30936B
:101EF00024042093230490912204953618F096E050
:101F000090931E0490911E04943009F466C0B8F4B6
:101F10009230F1F0933009F444C090912104992358
:101F200009F46BC081117AC080912004882309F4E0
:101F300063C08091200461E00E940F025EC0953072
:101F400009F457C0963049F791E09093EF044FC0E1
:101F50008111E3CF209123043091240424363105EC
:101F600028F41092240410922304D7CF1092EF0487
:101F700010922204E091220491E09E0F909322049B
:101F8000F0E02091230430912404EE0FFF1FE25E65
:101F9000FB4F30872783109224041092230493E090
:101FA00019C0813009F0B9CFE091220491E09E0F71
:101FB00090932204F0E02091230430912404EE0F4A
:101FC000FF1FE25EFB4F308727831092240410929C
:101FD000230494E090931E04A0CF882359F220910B
:101FE0002304309124042536310508F496CF95E07A
:101FF000F1CF811192CFB5CF2D9AFF91EF91BF9183
:10200000AF919F918F917F916F915F914F913F9190
:102010002F910F900FBE0F901F9018958091200464
:10202000882321F08091200460E086CF2D98E5CFB1
:10203000CF92DF92EF92FF920F931F93E82FF92F29
:1020400005C0015011092109310961F190819623E0
:102050009417B9F305C0015011092109310911F193
:10206000908196239413F7CFC12CD12CE12CF12C25
:102070000AC08FEFC81AD80AE80AF80A0C151D051D
:102080002E053F0579F080818623841791F36C2D0E
:102090007D2D8E2D9F2D1F910F91FF90EF90DF9042
:1020A000CF90089560E070E080E090E01F910F9184
:1020B000FF90EF90DF90CF9008950F931F93CF93F1
:1020C000DF93E5E7F3E01382128288EE93E0A0E06D
:1020D000B0E084839583A683B78322EB31E031831C
:1020E0002083E1E8F3E01382128284839583A68340
:1020F000B78384EC91E09183808385EC90E09587B1
:10210000848784EC90E09787868780EC90E0918BC1
:10211000808B81EC90E0938B828B82EC90E0958BAE
:10212000848B86EC90E0978B868B118E128E138EAB
:10213000148EEEE1F4E010E111831382C3E6D5E0E2
:1021400082EE91E09983888308E00B8384E08D839D
:1021500095E09E838F831A831C8361E00E947C023A
:1021600061E085E00E947C0261E084E00E947C02E4
:1021700061E084E00E940F0261E085E00E940F02AE
:102180008EE092E099838883CE010E94C70747E0E2
:1021900061E0CE010E940808E3E5F5E0DF01812F50
:1021A0001D928A95E9F7EFE4F5E0D183C0831283AD
:1021B0000383E2E4F5E01382128286ED91E09183DD
:1021C0008083118687E28483128782E08387148666
:1021D000AFE2B5E086E015968C9315978BE01696E6
:1021E0008C931697E3E2F1E0E4911796EC9317973E
:1021F000EFE0F1E0E4911896EC93189740E85EE385
:1022000060E070E01D964D935D936D937C935097C5
:10221000DF91CF911F910F910895789484B58260DA
:1022200084BD84B5816084BD85B5826085BD85B57A
:10223000816085BD80916E00816080936E001092F8
:102240008100809181008260809381008091810073
:102250008160809381008091800081608093800004
:102260008091B10084608093B1008091B000816062
:102270008093B00080917A00846080937A0080918E
:102280007A00826080937A0080917A0081608093E6
:102290007A0080917A00806880937A001092C10061
:1022A000E0919103F091920382E08083E0918D03AD
:1022B000F0918E031082E0918F03F091900380E102
:1022C000808310929903E0919503F091960386E044
:1022D0008083E0919303F0919403808180618083F7
:1022E000E0919303F0919403808188608083E09172
:1022F0009303F0919403808180688083E09193033D
:10230000F091940380818F7D808361E089E00E9459
:102310007C0290E080E00E946D0961E08AE00E940A
:102320007C02C3E3D0E054EFE52EFF24F3940BECE2
:1023300017E0F092A002E0929F0261E08AE00E9422
:102340000F02C8010197F1F760E08AE00E940F02D6
:1023500064E170E080E090E00E944F03219749F72C
:10236000F8941092800089E08093810080E293E0ED
:1023700090938900809388001092850010928400C9
:1023800082E080936F00789480931E041092220460
:1023900080911F0460E00E947C0261E081E00E9465
:1023A0007C0260E080E00E947C0261E08DE00E949F
:1023B0007C0261E08BE00E947C0261E08CE00E9484
:1023C0007C0261E083E00E947C0261E082E00E9486
:1023D0007C0261E082E10E947C0261E083E10E9474
:1023E0007C0260E082E10E940F0260E083E10E94D3
:1023F0000F0283E695E00E94C7073FE4E32E35E035
:10240000F32E10E0CC24C394D12CB12CA12CE601E6
:102410000A2C01C0CC0F0A94EAF7F70164816C2BF7
:10242000812F0E94FC0062E370E080E090E00E9457
:102430004F03C095F70164816C23812F0E94FC003B
:10244000FFEFAF1ABF0A88E0A816B10401F7EFEF5B
:10245000EE1AFE0A1F5F1031C1F610E000E0CC2436
:10246000C394D12CC601002E01C0880F0A94EAF74C
:10247000B82ED82FD0959FE4E92E95E0F92EC0E034
:10248000F70164816B298C2F0E94FC0062E370E0ED
:1024900080E090E00E944F03F70164816D238C2F50
:1024A0000E94FC00FFEFEF1AFF0ACF5FC03141F737
:1024B0000F5F1F4F08301105A9F60E948203C1E08B
:1024C000C093260528EE33E030932C0520932B058E
:1024D00060932705709328058093290590932A051A
:1024E00086E197E090932E0580932D050E9482034C
:1024F000C0931D0522EE34E030932305209322057E
:1025000060931E0570931F0580932005909321050D
:102510008DE197E090932505809324050E94820326
:10252000C093140522E836E030931A05209319056C
:102530006093150570931605809317059093180501
:1025400084E297E090931C0580931B050E94820310
:10255000C0930B0528E938E030931105209310054E
:1025600060930C0570930D0580930E0590930F05F5
:102570008BE297E090931305809312050E948203EB
:10258000C093020524EC39E0309308052093070539
:1025900060930305709304058093050590930605E9
:1025A00082E397E090930A05809309050E948203D5
:1025B000C093F9042CE83AE03093FF042093FE0422
:1025C0006093FA047093FB048093FC049093FD04E1
:1025D00089E397E090930105809300050E948203B0
:1025E000C093F00420EA35E03093F6042093F5041C
:1025F0006093F1047093F2048093F3049093F404D5
:1026000089ED9BE09093F8048093F70462E0809159
:1026100034050E947C020E948203605D774081093C
:102620009109609338057093390580933A0590932A
:102630003B0587E3809341051092FE021092FD0254
:10264000109200031092FF020E943D0285E391E088
:10265000909328038093270386E391E090932C03C3
:1026600080932B031092470580914D05823018F01E
:1026700098E09093470580934A0562E370E080E01C
:1026800090E00E944F0360914E0582E495E00E9425
:10269000560868EE73E080E090E00E944F0360E32C
:1026A00082E495E00E94760BCBE4D6E4CE0101975C
:1026B000F1F760E382E495E00E94760B2197F1F751
:1026C00060E382E495E00E94760B83E592E0019757
:1026D000F1F760E282E495E00E94760B6091470595
:1026E000606240E082E495E00E948F0B84E080937A
:1026F000480540E06CE082E495E00E948F0B0E9468
:10270000100D82E08093490540E066E082E495E0A8
:102710000E948F0B40E062E082E495E00E948F0B04
:102720008BE39FE10197F1F70E94100D88E0809301
:102730004E0560E082E495E00E94560868E971E089
:1027400080E00E94290D60E971E081E00E94290D7E
:1027500068E871E082E00E94290D60E871E083E0A2
:102760000E94290D68E771E084E00E94290D60E76E
:1027700071E085E00E94290D68E671E086E00E9424
:10278000290D60E671E087E00E94290D60E082E09B
:102790000E94A60B67E872E082E495E00E942D0A91
:1027A00061E083E00E94A60B60E082E495E00E9475
:1027B000230D61E085E00E94A60B64E972E082E4EB
:1027C00095E00E942D0A61E08CE00E94A60B60E07B
:1027D00082E495E00E94230D88248A9483E0982E59
:1027E000A12CB12C00E010E086E295E00E944109A6
:1027F0008DE195E00E94410984E195E00E94410944
:102800008BE095E00E94410982E095E00E94410939
:1028100089EF94E00E94410980EF94E00E94410911
:102820000E94581523E630E040E050E00E94B015C9
:102830006F5F7F4F8F4F9F4F6093AF027093B002D7
:102840008093B1029093B2028FE00E9415036C0155
:102850009093AE028093AD028EE00E9415037C013E
:102860009093AC028093AB022FEF30E0D6010E9430
:102870002716A50194010E94B01529013093AA02E0
:102880002093A9022FEF30E0D7010E942716A5015F
:1028900094010E94B015420E531EB201550C880BD4
:1028A000990B0E94641720E030E040EC5FE30E9447
:1028B00019189B01AC0160E070E08FE793E40E947F
:1028C00048160E942C1777FF02C070E060E07093FA
:1028D000A1016093A0010E94480D20E030E040EF8C
:1028E00051E40E94B51687FF7EC060E08CE00E9434
:1028F0000F0270E060E083E00E94B80260E08DE0CB
:102900000E940F0270E060E08BE00E94B8026AEF64
:1029100070E082E00E94B80264EF71E080E090E035
:102920000E944F0380EA90E00E946D09CAE0D0E067
:102930000E94480D6093A5027093A6028093A7029F
:102940009093A8022197A1F76CE271E080E090E0FB
:102950000E944F0384E190E00E946D09CAE0D0E03C
:102960000E94480D6B017C01C092A102D092A2028C
:10297000E092A302F092A402219791F770E060E048
:1029800082E00E94B8024090A5025090A60260909A
:10299000A7027090A80220E030E048E452E4C301AE
:1029A000B2010E94B51687FD0AC020E030E048E47D
:1029B00052E4C701B6010E94B51687FF22C0A301E9
:1029C0009201C701B6010E94B51687FF1EC085E5BA
:1029D00090E00E946D090E94CA0964EF71E080E0F6
:1029E00090E00E944F030E94DC090115110509F4D3
:1029F000FBCE0E94FE04882309F4F6CE0E9400005C
:102A0000F3CE8091AF0280FFE2CF85E590E00E9497
:102A10006D090E94B809E1CF8F929F92AF92BF9249
:102A2000CF92DF92EF92FF92CF93DF93EC01688118
:102A300079818A819B81611571058105910521F458
:102A400064E279ED8BE597E02DE133EF41E050E072
:102A50000E94B01549015A019B01AC01A7EAB1E4FB
:102A60000E94CF156B017C01ACEEB4EFA50194017F
:102A70000E94DD15C60ED71EE81EF91EF7FE06C021
:102A800081E0C81AD108E10880E8F80AC882D98232
:102A9000EA82FB82C701B6019F77DF91CF91FF9059
:102AA000EF90DF90CF90BF90AF909F908F90089560
:102AB0008F929F92AF92BF92CF92DF92EF92FF924E
:102AC0006091A2017091A3018091A4019091A50150
:102AD000611571058105910521F464E279ED8BE5BD
:102AE00097E02DE133EF41E050E00E94B01549013D
:102AF0005A019B01AC01A7EAB1E40E94CF156B011A
:102B00007C01ACEEB4EFA50194010E94DD15C60E68
:102B1000D71EE81EF91EF7FE06C081E0C81AD108CC
:102B2000E10880E8F80AC092A201D092A301E092E5
:102B3000A401F092A501C701B6019F77FF90EF9025
:102B4000DF90CF90BF90AF909F908F90089560934B
:102B5000A2017093A3018093A4019093A50108950D
:102B6000052E97FB1EF400940E94C71557FD07D051
:102B70000E94E21507FC03D04EF40C94C715509543
:102B80004095309521953F4F4F4F5F4F0895909559
:102B90008095709561957F4F8F4F9F4F08950E944C
:102BA0000416A59F900DB49F900DA49F800D911DBC
:102BB00011240895B7FF0C94CF150E94CF15821BE6
:102BC000930B0895A1E21A2EAA1BBB1BFD010DC099
:102BD000AA1FBB1FEE1FFF1FA217B307E407F507CD
:102BE00020F0A21BB30BE40BF50B661F771F881FA9
:102BF000991F1A9469F760957095809590959B013F
:102C0000AC01BD01CF010895A29FB001B39FC001E7
:102C1000A39F700D811D1124911DB29F700D811D08
:102C20001124911D089597FB072E16F4009407D0E8
:102C300077FD09D00E942E1607FC05D03EF4909532
:102C400081959F4F0895709561957F4F08950E94DB
:102C50000416B7FF0895821B930B0895AA1BBB1B94
:102C600051E107C0AA1FBB1FA617B70710F0A61B8C
:102C7000B70B881F991F5A95A9F780959095BC01AD
:102C8000CD010895EE0FFF1F0590F491E02D0994FA
:102C90005058BB27AA270E9460160C94DA170E948E
:102CA000CC1738F00E94D31720F039F49F3F19F465
:102CB00026F40C94C9170EF4E095E7FB0C94C317A7
:102CC000E92F0E94EB1758F3BA17620773078407BE
:102CD000950720F079F4A6F50C940D180EF4E09504
:102CE0000B2EBA2FA02D0B01B90190010C01CA01C6
:102CF000A0011124FF27591B99F0593F50F4503E71
:102D000068F11A16F040A22F232F342F4427585F62
:102D1000F3CF469537952795A795F0405395C9F77A
:102D20007EF41F16BA0B620B730B840BBAF0915032
:102D3000A1F0FF0FBB1F661F771F881FC2F70EC0D1
:102D4000BA0F621F731F841F48F4879577956795A4
:102D5000B795F7959E3F08F0B0CF9395880F08F090
:102D60009927EE0F9795879508950E949F1708F46D
:102D700081E008950E94CE160C94DA170E94D317B2
:102D800058F00E94CC1740F029F45F3F29F00C94D2
:102D9000C31751110C940E180C94C9170E94EB170D
:102DA00068F39923B1F3552391F3951B550BBB277A
:102DB000AA2762177307840738F09F5F5F4F220FBF
:102DC000331F441FAA1FA9F335D00E2E3AF0E0E8B6
:102DD00032D091505040E695001CCAF72BD0FE2F00
:102DE00029D0660F771F881FBB1F26173707480794
:102DF000AB07B0E809F0BB0B802DBF01FF2793584C
:102E00005F4F3AF09E3F510578F00C94C3170C9435
:102E10000E185F3FE4F3983ED4F386957795679557
:102E2000B795F7959F5FC9F7880F911D9695879580
:102E300097F90895E1E0660F771F881FBB1F62179F
:102E400073078407BA0720F0621B730B840BBA0B5D
:102E5000EE1F88F7E09508950E9433176894B1112A
:102E60000C940E1808950E94F31788F09F5798F05D
:102E7000B92F9927B751B0F0E1F0660F771F881F7F
:102E8000991F1AF0BA95C9F714C0B13091F00E9499
:102E90000D18B1E008950C940D18672F782F88272E
:102EA000B85F39F0B93FCCF3869577956795B395C0
:102EB000D9F73EF490958095709561957F4F8F4F2F
:102EC0009F4F0895E89409C097FB3EF49095809534
:102ED000709561957F4F8F4F9F4F9923A9F0F92FE0
:102EE00096E9BB279395F695879577956795B7955E
:102EF000F111F8CFFAF4BB0F11F460FF1BC06F5F44
:102F00007F4F8F4F9F4F16C0882311F096E911C055
:102F1000772321F09EE8872F762F05C0662371F076
:102F200096E8862F70E060E02AF09A95660F771F8A
:102F3000881FDAF7880F9695879597F90895990F66
:102F40000008550FAA0BE0E8FEEF16161706E80773
:102F5000F907C0F012161306E407F50798F0621B94
:102F6000730B840B950B39F40A2661F0232B242B69
:102F7000252B21F408950A2609F4A140A6958FEF88
:102F8000811D811D089597F99F6780E870E060E0DA
:102F900008959FEF80EC089500240A9416161706F2
:102FA00018060906089500240A941216130614063A
:102FB00005060895092E0394000C11F4882352F09D
:102FC000BB0F40F4BF2B11F460FF04C06F5F7F4F55
:102FD0008F4F9F4F089557FD9058440F551F59F03C
:102FE0005F3F71F04795880F97FB991F61F09F3FF6
:102FF00079F087950895121613061406551FF2CF1F
:103000004695F1DF08C0161617061806991FF1CF6E
:1030100086957105610508940895E894BB27662795
:103020007727CB0197F908950E949F1708F48FEF37
:1030300008950E942C180C94DA170E94CC1738F0CF
:103040000E94D31720F0952311F00C94C3170C9411
:10305000C91711240C940E180E94EB1770F3959F5A
:10306000C1F3950F50E0551F629FF001729FBB277F
:10307000F00DB11D639FAA27F00DB11DAA1F649F1B
:103080006627B00DA11D661F829F2227B00DA11DCE
:10309000621F739FB00DA11D621F839FA00D611D54
:1030A000221F749F3327A00D611D231F849F600D75
:1030B000211D822F762F6A2F11249F5750409AF09E
:1030C000F1F088234AF0EE0FFF1FBB1F661F771F2A
:1030D000881F91505040A9F79E3F510580F00C94F5
:1030E000C3170C940E185F3FE4F3983ED4F3869513
:1030F00077956795B795F795E7959F5FC1F7FE2B95
:10310000880F911D9695879597F908950E949F17AE
:0A311000880B990B0895F894FFCF87
:10311A002E2A3A00023E02003E223E003E0A0E00DD
:10312A00007F08087F003C42423C003E40403E008F
:10313A0000003C42423C007E12120C00005E00007D
:10314A00F80CF80CF80078A8A8B8000808F80808DD
:10315A00FE12127CB0B080B8A8E808F808E890E03F
:10316A0000110A048A5140404040518A040A110061
:10317A000E11111F1B1B1F00000E151B0E0E000047
:10318A0001030509090B1B1801030F0F0F030100A7
:10319A00000103161C0800001F151F1F0E0A1B0042
:1031AA00040E0E0E1F000400000A1F1F0E0400006A
:1031BA00FF0001000000000040001400540000005D
:1031CA0000008E0161013E0937015A0147013801A9
:1031DA000000000034059404C1048105F204D004FF
:1031EA00E40400000000230D94043E093D09000098
:1031FA0000000808C707B707B6078A074907400744
:10320A00EC069B06A90798069C07940637018406D4
:10321A00740639061C06EB05A10500000000080823
:10322A00C707B707B6078A0749074007EC069B0690
:10323A00A90798069C079406370142082E08180821
:10324A001C06EB05A1056E616E00696E66006F765D
:10325A0066004661696C656420746F2072656164FA
:10326A002066726F6D204448542073656E736F72C6
:10327A0021000D0A0048756D69646974793A200065
:10328A0054656D70657261747572653A2000543ABE
:10329A000020483A00250048656C6C6F2050657321
:0C32AA00746F21004C6F766520750000E9
:00000001FF
