:100000000C949A000C94C2000C94C2000C94C20090
:100010000C94C2000C94C2000C94C2000C94C20058
:100020000C94C2000C94C2000C94C2000C945F0F9C
:100030000C94C2000C94C2000C94C2000C94C20038
:100040000C94BD0E0C94C2000C942D0F0C94070F51
:100050000C94C2000C94C2000C94C2000C94C20018
:100060000C949E0D0C94C2000086227E6D0000024E
:1000700030066300044080523F065B4F666D7D276B
:100080007F6F0000004800535F777F393F79713DF3
:1000900076061E693815373F7367316D783E2A1D25
:1000A000766E5B39640F0008205F7C585E7B316F91
:1000B00074040E753055545C7367506D781C2A1D9E
:1000C000766E47460670013F065B4F666D7D077F83
:1000D0006F777C395E797100000000240027002AC8
:1000E0000000000000250028002B00000000080090
:1000F00002010000030407000000000000000000EF
:100100000000002300260029000404040404040461
:1001100004020202020202030303030303010204B6
:100120000810204080010204081020010204081079
:100130002000601011241FBECFEFD8E0DEBFCDBF7E
:1001400012E0A0E0B1E0E0E0F1E302C005900D9222
:10015000AC39B107D9F725E0ACE9B2E001C01D9296
:10016000A936B207E1F710E0CAE9D0E004C0219750
:10017000FE010E943516C939D107C9F70E94101136
:100180000C947E180C940000CF92DF92EF92FF92B5
:10019000CF93DF93B0913405A0E08111AB2F809114
:1001A000350590E0880F991FAC0141505F4FC0901A
:1001B0003A05D0903B05E0903C05F0903D0530E0DD
:1001C00020E0FA01C591D491E881B90190E080E086
:1001D000EB23EA130AC02F5F3F4F6C157D058E0598
:1001E0009F0578F36FEF7FEFCB01DF91CF91FF9009
:1001F000EF90DF90CF900895E82FF0E0E35BFA4FA7
:100200006483A0914D05B0914E05ED91FC9111973D
:100210000480F581E02D482FCD010994209127031A
:10022000260F3327331F21323105ECF420914D0383
:10023000FC0190E080E0243069F082E00895A09114
:1002400027032191AC014B5F5C4FA40FB52FB11D6B
:100250002C930196861798F380912703680F60937B
:10026000270380E0089581E0089508950895089592
:10027000E091FC028091FB02E81730F4F0E0E552D7
:10028000FD4F808190E008958FEF9FEF089590914A
:10029000FC028091FB022FEF3FEF981748F4E92F03
:1002A000F0E0E552FD4F208130E09F5F9093FC022B
:1002B000C90108958091FB029091FC02891B990B62
:1002C0000895CF92DF92EF92FF920F931F93CF93F7
:1002D000DF937C01CB018A012091DA02222389F08D
:1002E000EB016B01C40ED51ECC15DD0569F06991DB
:1002F000D701ED91FC910190F081E02DC7010995A6
:10030000F3CF642F0E940E01C801DF91CF911F919E
:100310000F91FF90EF90DF90CF900895CF93DF93F0
:100320001F92CDB7DEB769832091DA022223F9F05C
:100330002091FD02203258F021E030E0FC013383AF
:10034000228390E080E00F90DF91CF91089580911B
:10035000FE02E82FF0E0E654FD4F998190838F5F15
:100360008093FE028093FD0281E090E0ECCF61E09B
:10037000CE0101960E940E01F7CF833081F028F460
:10038000813099F08230A9F008958730A9F0883043
:10039000C9F08430B1F4809180008F7D03C08091DA
:1003A00080008F7780938000089584B58F7784BD17
:1003B000089584B58F7DFBCF8091B0008F778093B7
:1003C000B00008958091B0008F7DF9CFCF93DF9377
:1003D000282F30E0F901E551FF4F8491F901E35EE8
:1003E000FE4FD491F901E75FFE4FC491CC23A1F0F9
:1003F00081110E94BD01EC2FF0E0EE0FFF1FE150D4
:10040000FF4FA591B491EC91ED2381E090E009F4C8
:1004100080E0DF91CF91089580E090E0FACF1F93C4
:10042000CF93DF93282F30E0F901E551FF4F8491FE
:10043000F901E35EFE4FD491F901E75FFE4FC491ED
:10044000CC23A9F0162F81110E94BD01EC2FF0E002
:10045000EE0FFF1FEF51FF4FA591B4918FB7F894A6
:10046000EC91111108C0D095DE23DC938FBFDF9192
:10047000CF911F910895DE2BF8CF10924D0381E0AC
:1004800080934F0310924E0361E082E10E940F02BD
:1004900061E083E10E940F02E9EBF0E080818E7F52
:1004A000808380818D7F808388E48093B80085E499
:1004B0008093BC000895CF93DF9391E09093040361
:1004C0008823B9F0C091B800D091BA008091BC00E7
:1004D0008A7B8093BC0060E082E10E940F0260E0B2
:1004E00083E10E940F020E943D02D093BA00C093A4
:1004F000B800DF91CF910895CF93DF9390E0FC0196
:10050000E35EFE4F2491875F9E4FFC018491882318
:10051000C9F090E0880F991FFC01E952FF4FA591A7
:10052000B491FC01EF51FF4FC591D49161110DC001
:100530009FB7F8948C91209582238C9388812823EF
:1005400028839FBFDF91CF910895623051F49FB708
:10055000F8943C91822F809583238C93E8812E2BF5
:10056000EFCF8FB7F894EC912E2B2C938FBFEACF5F
:100570001F93CF93DF93182FEB0161E00E947C0261
:10058000209739F460E0812FDF91CF911F910C9477
:100590000F02CF3FD10511F461E0F5CFE12FF0E07C
:1005A000E551FF4FE491E33031F140F4E130B1F037
:1005B000E230E1F0C038D1057CF7E4CFE73029F133
:1005C000E83059F1E430B1F7809180008062809387
:1005D0008000D0938B00C0938A0004C084B58068EB
:1005E00084BDC7BDDF91CF911F91089584B580620E
:1005F00084BDC8BDF7CF8091800080688093800063
:10060000D0938900C0938800EDCF8091B0008068BE
:100610008093B000C093B300E5CF8091B0008062BA
:100620008093B000C093B400DDCF8E3008F08E50C0
:100630008770806480937C0080917A0080648093CE
:100640007A0080917A0086FDFCCF809178009091AD
:10065000790008953FB7F8948091B6029091B7025F
:10066000A091B802B091B90226B5A89B05C02F3F52
:1006700019F00196A11DB11D3FBFBA2FA92F982FC8
:100680008827BC01CD01620F711D811D911D42E0C3
:10069000660F771F881F991F4A95D1F708958F928B
:1006A0009F92AF92BF92CF92DF92EF92FF926B0137
:1006B0007C010E942A034B015C01C114D104E104B6
:1006C000F104B9F00E942A03681979098A099B0983
:1006D000683E73408105910580F321E0C21AD1087C
:1006E000E108F10888EE880E83E0981EA11CB11C79
:1006F000E4CFFF90EF90DF90CF90BF90AF909F90AE
:100700008F9008952FB7F8946091B2027091B30260
:100710008091B4029091B5022FBF0895CF92DF92DD
:10072000EF92FF920F931F93CF93DF93CDB7DEB776
:10073000C054D1400FB6F894DEBF0FBECDBF0E94AB
:1007400082030091360510913705209138053091CC
:1007500039056B017C01C01AD10AE20AF30A97013C
:100760008601003D17402105310590F480913E053A
:10077000C05CDE4F0FB6F894DEBF0FBECDBFDF9179
:10078000CF911F910F91FF90EF90DF90CF90089540
:10079000609336057093370580933805909339053B
:1007A000109231051092300510922F0510922E05EF
:1007B00010922D0562E0809132050E947C0261E07A
:1007C00070E080E090E00E944F0361E0809132058C
:1007D0000E947C0260E0809132050E940F028091AD
:1007E00033058551823020F58BE291E10197F1F7D5
:1007F00062E0809132050E947C0280913F0590E08A
:100800008230910538F0880F991F880F991F05973E
:100810000197F1F7F89480E00E94C4006F3F7F4F8A
:100820008F4F9F4F61F410923E05789480E0A0CFE7
:1008300064E170E080E090E00E944F03D9CF81E056
:100840000E94C4006F3F7F4F8F4F9F4F61F38E0117
:100850000F5F1F4F6E012FEBC21A2EEFD20A7801E5
:1008600080E00E94C400F7016083718382839383D8
:1008700081E00E94C400F7016483758386839783B7
:10088000F8E0EF0EF11CEC14FD0451F7789430E021
:1008900020E0F801C080D180E280F380448155815E
:1008A00066817781FFEFCF16DF06EF06FF0631F096
:1008B0004F3F8FEF58076807780719F410923E05ED
:1008C000B5CFF90183E0F595E7958A95E1F7E35D0A
:1008D000FA4F8081880FC416D506E606F70610F198
:1008E00080832F5F3F4F085F1F4F2832310589F605
:1008F0004091310520912D0580912E05280F332739
:10090000331F80912F05280F311D80913005820FF4
:10091000932F911D99274817190681F681E080933E
:100920003E0526CF8160DCCFAF92BF92CF92DF929F
:10093000EF92FF920F931F93CF93DF936C017B0194
:100940008B01040F151FEB015E01AE18BF08C01725
:10095000D10759F06991D601ED91FC910190F08198
:10096000E02DC6010995892B79F7C501DF91CF915B
:100970001F910F91FF90EF90DF90CF90BF90AF90BD
:100980000895FC01538D448D252F30E0842F90E095
:10099000821B930B541710F0CF960895019708957A
:1009A000FC01918D828D981761F0A28DAE0FBF2F43
:1009B000B11D5D968C91928D9F5F9F73928F90E099
:1009C00008958FEF9FEF0895FC01918D828D981708
:1009D00031F0828DE80FF11D858D90E008958FEF45
:1009E0009FEF0895FC01918D228D892F90E0805C0E
:1009F0009F4F821B91098F73992708958FE793E08A
:100A00000E94F20421E0892B09F420E0822F08954E
:100A100080E090E0892B29F00E94FE0481110C9463
:100A200000000895FC01A48DA80FB92FB11DA35A91
:100A3000BF4F2C91848D90E001968F739927848FFE
:100A4000A689B7892C93A089B1898C918370806421
:100A50008C93938D848D981306C00288F389E02DC2
:100A600080818F7D80830895EF92FF920F931F9373
:100A7000CF93DF93EC0181E0888F9B8D8C8D981351
:100A80001AC0E889F989808185FF15C09FB7F8945D
:100A9000EE89FF896083E889F989808183708064A9
:100AA00080839FBF81E090E0DF91CF911F910F91F4
:100AB000FF90EF900895F62E0B8D10E00F5F1F4F03
:100AC0000F731127E02E8C8D8E110CC00FB607FC12
:100AD000FACFE889F989808185FFF5CFCE010E94A0
:100AE0001205F1CFEB8DEC0FFD2FF11DE35AFF4FF7
:100AF000F0829FB7F8940B8FEA89FB89808180622E
:100B0000CFCFCF93DF93EC01888D8823B9F0AA89EA
:100B1000BB89E889F9898C9185FD03C0808186FDB8
:100B20000DC00FB607FCF7CF8C9185FFF2CF808107
:100B300085FFEDCFCE010E941205E9CFDF91CF9165
:100B40000895CF92DF92EF92FF921F93CF93DF939E
:100B5000EC0160E08D810E947C0261E08D810E9449
:100B60000F0298E0C92ED12C10E0E12EF12CF59463
:100B7000E7941E2D60E08E810E940F02E881F981CA
:100B8000028CF38DE02DCE0109958D810E94E60146
:100B9000892B09F0106861E08E810E940F02E881C4
:100BA000F981028CF38DE02DCE01099581E0C81A00
:100BB000D108D9F661E08D810E947C0260E08D81D0
:100BC0000E940F02812FDF91CF911F91FF90EF9034
:100BD000DF90CF9008950F931F93CF93DF93EC0195
:100BE000162F042FE881F98102A0F3A1E02D64E41F
:100BF0000995E881F981048CF58DE02DCE010995E8
:100C0000612F606CE881F98100A0F1A1E02DCE0197
:100C10000995E881F98100A0F1A1E02D602FCE01B6
:100C20000995E881F981068CF78DE02DCE01DF91E1
:100C3000CF911F910F9109941F93CF93DF93EC01F4
:100C4000162FE881F981048CF58DE02D0995E88156
:100C5000F98100A0F1A1E02D612FCE010995E88175
:100C6000F981068CF78DE02DCE01DF91CF911F9198
:100C70000994FF920F931F93CF93DF93EC01F62E0D
:100C800008E010E060E08E810E940F02E881F981A7
:100C9000028CF38DE02DCE0109956F2D61708D8151
:100CA0000E940F02E881F981028CF38DE02DCE01C4
:100CB0000995F69461E08E810E940F02E881F98126
:100CC000028CF38DE02DCE01099501501109D1F66A
:100CD000E881F981028CF38DE02DCE01DF91CF9177
:100CE0001F910F91FF900994CF93DF93EC0161E086
:100CF0008F810E940F02E881F981028CF38DE02D33
:100D0000CE01DF91CF910994CF93DF93EC0160E0A6
:100D10008F810E940F02E881F981028CF38DE02D12
:100D2000CE01DF91CF91099460E070E0CB0108958E
:100D3000FC01848108957F928F929F92AF92BF921F
:100D4000CF92DF92EF92FF920F931F93CF93DF9397
:100D50007C016A01722E8B01D0E0C0E0A22EB12C82
:100D600088248394912CD70114968C9190E09C0157
:100D70002A193B09C217D3070CF5F80141918F01DD
:100D80004423E1F08C1B9D0B0197940102C0220FBC
:100D9000331F8A95E2F7C9018C219D2121E0892B1F
:100DA00009F420E06C2F670DD701ED91FC910688C6
:100DB000F789E02DC70109952196D5CFDF91CF9115
:100DC0001F910F91FF90EF90DF90CF90BF90AF9069
:100DD0009F908F907F900895CF92DF92EF92FF9235
:100DE0000F931F93CF93DF937C016B01042F10E0CF
:100DF000D0E0C0E0C017D10781F0F601EC0FFD1F75
:100E00004491D701ED91FC910288F389E02D20E017
:100E10006C2FC70109952196EDCFDF91CF911F91DE
:100E20000F91FF90EF90DF90CF90089540E160E048
:100E300071E081E695E00C94EC0640E160E171E040
:100E400081E695E00C94EC0640E160E271E081E619
:100E500095E00C94EC0640E160E371E081E695E0FA
:100E60000C94EC0640E160E471E081E695E00C94BE
:100E7000EC0640E160E571E081E695E00C94EC065B
:100E8000242FDC01ED91FC910288F389E02D40E0F4
:100E900009949F92AF92BF92CF92DF92EF92FF920E
:100EA0000F931F93CF93DF937C01C1E0C42ED12C0D
:100EB0008AE0A82EB12CD70114964C914C17F0F073
:100EC00096010C2E02C0359527950A94E2F7217001
:100ED0004C1BCB01B5010E940616962ED72FD701C9
:100EE000ED91FC910084F185E02D07EC10E0682F76
:100EF000C7010995692D7D2FCF5FDDCFDF91CF91A0
:100F00001F910F91FF90EF90DF90CF90BF90AF9027
:100F10009F9008950F931F93E62F642FEF70E00FBB
:100F2000F12FF11D4491DC01ED91FC910288F389D0
:100F3000E02D1F910F910994E42F440FFF0BE85B04
:100F4000FF4F4491DC01ED91FC910288F389E02D83
:100F50000994362FDC01ED91FC910480F581E02DA0
:100F600060E0211160E8642B432F09940895242F39
:100F7000DC0112963C911297431740F4ED91FC91DD
:100F800004A0F5A1E02D462F622F099408950F9338
:100F90001F93CF93DF93EC01E881F98102A0F3A1C5
:100FA000E02D60E40995E881F981048CF58DE02D50
:100FB000CE010995E881F98100A0F1A1E02D60EC56
:100FC000CE01099510E000E0E881F9818A8180175F
:100FD0001106A9F0A4F000A0F1A1E02D60E0CE017F
:100FE00009958B81893040F0E881F98100A0F1A159
:100FF000E02D60E0CE0109950F5F1F4FE5CF068C15
:10100000F78DE02DCE01DF91CF911F910F910994C3
:10101000DC01ED91FC9102A0F3A1E02D611106C06D
:1010200060E8483008F047E0642B099468E8F9CF9D
:10103000CF93DF93EC010E94390660E08E810E941D
:101040000F0260E08D810E940F02E881F981028C1D
:10105000F38DE02DCE01DF91CF910994CF93DF93F3
:10106000EC0161E08E810E940F0261E08D810E949F
:101070000F02E881F981028CF38DE02DCE01DF9122
:10108000CF910994CF93DF93EC0160E08D810E94B2
:101090000F0260E08E810E940F02E881F981028CCC
:1010A000F38DE02DCE01DF91CF910994CF92DF92A5
:1010B000EF92FF920F931F93CF93DF93FC01C481B4
:1010C00021E02093DA02C0939E021092FE02109259
:1010D000FD028485682B83E793E00E948E01D09106
:1010E000FD02D13208F092C00E942A036B017C01FC
:1010F00080914D03811165C082E080934D0381E0B2
:1011000080934F038FEF80934C0310927103D09321
:101110007003AAEBB2E0E0E5F3E080E0D81385C00D
:101120001092720380917203CC0FC82BC09372038C
:1011300080914E03813009F07CC010924E030E94D2
:101140002A036B017C01809172038093BB00809124
:10115000000390910103A0910203B0910303892B36
:101160008A2B8B2B99F00E942A0300910003109187
:10117000010320910203309103036C197D098E094C
:101180009F090617170728073907E0F18091BC006F
:1011900083FDD9CF85EC8093BC000E942A036B01AC
:1011A0007C0180914D03823009F445C080914C034D
:1011B0008F3F61F180914C03803241F180914C036B
:1011C00025C08091000390910103A0910203B0918A
:1011D0000303892B8A2B8B2B09F48ACF0E942A03C5
:1011E0000091000310910103209102033091030349
:1011F0006C197D098E099F090617170728073907FB
:1012000008F076CF8091FF020E945B021092FE02EE
:101210001092FD021092DA02DF91CF911F910F918F
:10122000FF90EF90DF90CF9008959D9191938F5F05
:1012300075CF85EEB0CF8091000390910103A0910E
:101240000203B0910303892B8A2B8B2B09F4A9CFBE
:101250000E942A03009100031091010320910203D0
:10126000309103036C197D098E099F090617170732
:101270002807390708F095CFC5CF089590E080E0A2
:1012800008950F931F93CF93DF93FC0120812223B6
:10129000F9F0EC010E94820309811A812B813C81C3
:1012A000AB01BC01401B510B620B730B8D819E8106
:1012B000B0E0A0E0481759076A077B0748F0EF81C4
:1012C000F88509950E94820369837A838B839C83C6
:1012D000DF91CF911F910F9108959F92AF92BF928E
:1012E000CF92DF92EF92FF920F931F93CF93DF93F2
:1012F000982E8BE0869FE001879FD00D1124CC5063
:10130000DE4F8E01000F111F000F111F0550110934
:10131000CE0168E17CEF0E9406166B0184E1C80EE5
:10132000D11C0D2C000CEE08FF0893E3A92EB12C64
:10133000D0939D02C0939C0261E0892D0E940F0210
:10134000C8010197F1F760E0892D0E940F02C701E3
:10135000B6010E944F0381E0A81AB10849F7DF9156
:10136000CF911F910F91FF90EF90DF90CF90BF90A2
:10137000AF909F90089561E08CE00E940F026FEFA4
:1013800070E083E00E94B80260E08DE00E940F02EE
:101390006FEF70E08BE00C94B80260E08CE00E948C
:1013A0000F026FEF70E083E00E94B80261E08DE011
:1013B0000E940F026FEF70E08BE00C94B802609116
:1013C000A0017091A10182E00E94B80261E08CE06E
:1013D0000E940F026FEF70E083E00E94B80261E0AC
:1013E0008DE00E940F026FEF70E08BE00C94B8026A
:1013F00085ED8093BC008091000390910103A09142
:101400000203B09103030796A11DB11D23E0B69519
:10141000A795979587952A95D1F72091BC0024FD33
:1014200003C010924D0308954091000350910103B1
:101430006091020370910303452B462B472B69F300
:101440000097A105B10541F025E32A95F1F70000C9
:101450000197A109B109E1CF8091FF020C945B02D1
:10146000FB0101900020E9F73197AF01461B570BB4
:10147000DC01ED91FC910280F381E02D09948F92C3
:101480009F92AF92BF92EF92FF920F931F93CF93D1
:10149000DF93CDB7DEB7A1970FB6F894DEBF0FBECE
:1014A000CDBF7C01FA01CB0119A2223008F42AE059
:1014B0008E010F5D1F4F822E912CB12CA12CBF01EC
:1014C000A50194010E94D515F901CA016A300CF5F5
:1014D000605DD8016E938D01232B242B252B79F78A
:1014E00090E080E0109721F0BD01C7010E94300A12
:1014F000A1960FB6F894DEBF0FBECDBFDF91CF919E
:101500001F910F91FF90EF90BF90AF909F908F90A1
:101510000895695CDECF2F923F924F925F926F9257
:101520007F928F929F92AF92BF92CF92DF92EF9273
:10153000FF921F93CF93DF93EC016A017B01722E20
:10154000AB019601CB01B6010E94791866E372E007
:10155000811126C046015701E894B7F82FEF3FEFFD
:101560004FE75FE7C501B4010E94791881110CC0F3
:101570002FEF3FEF4FE75FE7C501B4010E94A816C8
:101580006AE372E0181664F02FEF3FEF4FE75FE475
:10159000C701B6010E9407181816B4F46EE372E092
:1015A000CE01DF91CF911F91FF90EF90DF90CF9010
:1015B000BF90AF909F908F907F906F905F904F9073
:1015C0003F902F900C94300A2FEF3FEF4FE75FECE6
:1015D000C701B6010E94A81687FDE0CF20E030E0E9
:1015E000A901C701B6010E94A816312C212C87FF42
:1015F0000DC0E881F9810190F081E02D6DE2CE010E
:1016000009951C01F7FAF094F7F8F09410E060E007
:1016100070E080E09FE3711641F020E030E040E2AE
:1016200051E40E94AD161F5FF6CFA70196010E94FC
:101630003C162B013C010E9426174B015C012AE05D
:10164000BC01A401CE010E943F0A7C01E20CF31C04
:101650001123E1F1C501B4010E9455179B01AC01B2
:10166000C301B2010E943B164B015C01E881F98184
:101670000190F081E02D6EE2CE010995E80EF91E91
:10168000115020F120E030E040E251E4C501B40106
:101690000E940C182B013C010E9426174B01B12C13
:1016A000A12C2AE0B501A401CE010E943F0AE80E58
:1016B000F91EC501B4010E9455179B01AC01C3017D
:1016C000B2010E943B164B015C01DACFC701DF91EA
:1016D000CF911F91FF90EF90DF90CF90BF90AF9090
:1016E0009F908F907F906F905F904F903F902F9042
:1016F00008950F931F93CF938C01C62F0E94560815
:101700006C2F6460C8010E9456086C2F6B7FC80163
:101710000E94560883EC90E00197F1F7CF911F915A
:101720000F9108950F931F93CF93DF938C01D62FC2
:10173000C42F607F642B0E94790B80E1D89FB00199
:1017400011246C2BC801DF91CF911F910F910C9444
:10175000790BCF93DF93CDB7DEB728970FB6F89408
:10176000DEBF0FBECDBF98E0E6EAF1E0DE011196E4
:1017700001900D929A95E1F790914805961708F41B
:101780006FEF262F30E0220F331F41E050E04C0F67
:101790005D1F240F351FF9016081680F606840E00C
:1017A00080E495E028960FB6F894DEBF0FBECDBF5B
:1017B000DF91CF910C94920B8F929F92AF92BF9238
:1017C000CF92DF92EF92FF92CF930E948E038823F5
:1017D00049F0809133058B3028F08D3050F08551E1
:1017E0008230C8F1812C912C20ECA22E2FE7B22E52
:1017F0001EC060912E0570E090E080E00E945717B7
:101800002DEC3CEC4CEC5DE30E940C186B017C0170
:1018100060912D0570E090E080E00E9457179B01D9
:10182000AC01C701B6010E943C164B015C010E944D
:101830008E03882309F474C0809133058C3009F439
:1018400084C0D8F48B3091F1C12CD12C80ECE82EDF
:101850008FE7F82E55C060912D0570912E057627E3
:101860006727762790E080E00E9455172DEC3CEC2E
:101870004CEC5DE30E940C18D8CF8551823020F7E4
:10188000C0912F056C2F70E0762F662766277F7733
:1018900080913005682B90E080E00E9455172DEC78
:1018A0003CEC4CEC5DE30E940C186BC060912F0582
:1018B00070E090E080E00E9455176B017C01C091C0
:1018C0003005C7FF0AC0AC019B0160E070E080E812
:1018D0009FEB0E943B166B017C01CF706C2F70E078
:1018E00090E080E00E9457172DEC3CEC4CEC5DE35F
:1018F0000E940C18A70196010E943C166B017C0106
:10190000A5019401C501B4010E947918811108C094
:10191000A7019601C701B6010E9479188823D1F169
:1019200062E472E08FE793E00E94300A62E672E0C0
:101930008FE793E0CF91FF90EF90DF90CF90BF9033
:10194000AF909F908F900C94300AC0912F056C2F10
:1019500070E090E080E00E9455176B017C0160917F
:1019600030056F7070E090E080E00E9457172DEC1A
:101970003CEC4CEC5DE30E940C18A70196010E9420
:101980003C166B017C01C7FFBBCFF7FAF094F7F868
:10199000F094B6CF65E672E08FE793E00E94300ADC
:1019A00022E0B501A4018FE793E00E948B0A62E672
:1019B00072E08FE793E00E94300A60E772E08FE701
:1019C00093E00E94300A22E0B701A6018FE793E07E
:1019D0000E948B0A62E672E08FE793E00E94300A71
:1019E00060E080E00E94A90B6EE772E080E495E081
:1019F0000E94300A22E0B701A60180E495E00E942F
:101A00008B0A61E872E080E495E00E94300A22E0EF
:101A1000B501A40180E495E00E948B0A65E872E0BC
:101A200080E495E087CF40E061E080E495E00E94AB
:101A3000920B8BE39FE10197F1F780914905882391
:101A400021F060E080E00C94A90B089541E00E9431
:101A5000920B81E090E008950F931F93CF93DF9353
:101A60008B0198E0899FB0011124606440E080E41C
:101A700095E00E94920BE801085F1F4F699180E496
:101A800095E00E94260DC017D107C1F7DF91CF91D5
:101A90001F910F910895CF92DF92EF92FF920F93D3
:101AA0001F9360E081E00E940F0283E090E00197C5
:101AB000F1F761E081E00E940F0283E290E001977C
:101AC000F1F760E081E00E940F02EDE1F1E0649146
:101AD000E9E0F1E0E491F0E0EE0FFF1FE150FF4F8D
:101AE0008591949100E412E42FE030E0462F0E94AB
:101AF0001B106B017C01C114D104E104F10439F025
:101B00008FEFC81AD80AE80AF80A8FE0F8226AE0CC
:101B100070E080E090E00E944F03C701B6010E9490
:101B2000551720E030E048E652E40E94AD161F91C0
:101B30000F91FF90EF90DF90CF9008951F920F923A
:101B40000FB60F9211242F933F934F935F936F9390
:101B50007F938F939F93AF93BF93EF93FF93809166
:101B6000B900887F803609F44AC0F0F5883209F45C
:101B7000A7C018F5803109F49BC0B8F4882309F494
:101B8000F9C0883009F494C0FF91EF91BF91AF91F3
:101B90009F918F917F916F915F914F913F912F9185
:101BA0000F900FBE0F901F901895883109F488C0D0
:101BB000803251F780934C0314C0803409F49DC0E7
:101BC00040F48033B9F38833F9F680934C0385EC05
:101BD000B0C0803509F485C0883509F496C08834D2
:101BE00099F60E94F809D0CF883909F48CC038F5ED
:101BF000883729F050F4883611F0803729F683E0D1
:101C000080934D0310924B0357C0883809F47BC072
:101C1000803919F0803809F0B7CF80914B038032BA
:101C200008F071C0E0914B0381E08E0F80934B036D
:101C30008091BB00F0E0E55DFC4F80833DC0803BC0
:101C400039F0E0F4803A09F479C0883A09F09CCF81
:101C500084E080934D031092280310922703E091B3
:101C60002503F091260309958091270381110FC068
:101C700081E0809327031092050309C0803C09F49A
:101C8000A6CF883C09F4A3CF883B09F07DCFE09133
:101C9000280381E08E0F80932803F0E0EB5FFC4F78
:101CA00080818093BB00909128038091270329C0F5
:101CB000809172038093BB0085EC8093BC0064CF5D
:101CC0009091710380917003981758F5E09171031A
:101CD00081E08E0F80937103F0E0E05BFC4F808128
:101CE000E9CFE091710381E08E0F809371038091C1
:101CF000BB00F0E0E05BFC4F80839091710380912A
:101D000070039817C8F285E8D8CFE091710381E09D
:101D10008E0F809371038091BB00F0E0E05BFC4F7D
:101D2000808380914F0381115CCF81E080934E03CB
:101D300084EA8093BC0010924D0326CF85EC8093FB
:101D4000BC0010924D0380914B03803230F4E0913F
:101D50004B03F0E0E55DFC4F108260914B0370E0B7
:101D6000E0912903F0912A038BE293E00995109208
:101D70004B030ACF10924C0334CF1F920F920FB631
:101D80000F9211242F933F938F939F93AF93BF9301
:101D90008091B2029091B302A091B402B091B502C9
:101DA0003091B10223E0230F2D3758F50196A11D84
:101DB000B11D2093B1028093B2029093B302A0931D
:101DC000B402B093B5028091B6029091B702A0918F
:101DD000B802B091B9020196A11DB11D8093B6025F
:101DE0009093B702A093B802B093B902BF91AF919C
:101DF0009F918F913F912F910F900FBE0F901F9049
:101E0000189526E8230F0296A11DB11DD2CF1F926F
:101E10000F920FB60F9211242F933F934F935F931E
:101E20006F937F938F939F93AF93BF93EF93FF93A2
:101E30008FE793E00E941205FF91EF91BF91AF9160
:101E40009F918F917F916F915F914F913F912F91D2
:101E50000F900FBE0F901F9018951F920F920FB604
:101E60000F9211242F938F939F93EF93FF93E09101
:101E70008F03F09190038081E0919503F091960398
:101E800082FD1BC09081809198038F5F8F7320919A
:101E90009903821741F0E0919803F0E0E158FC4F7C
:101EA000958F80939803FF91EF919F918F912F9140
:101EB0000F900FBE0F901F9018958081F4CF1F9246
:101EC0000F920FB60F9211242F933F934F935F936E
:101ED0006F937F938F939F93AF93BF93EF93FF93F2
:101EE00080911D040E94E60120912104309122047A
:101EF0002F5F3F4F309322042093210490912004C0
:101F0000953618F096E090931C0490911C04943040
:101F100009F466C0B8F49230F1F0933009F444C08B
:101F200090911F04992309F46BC081117AC08091AC
:101F30001E04882309F463C080911E0461E00E949E
:101F40000F025EC0953009F457C0963049F791E012
:101F50009093ED044FC08111E3CF20912104309183
:101F600022042436310528F4109222041092210410
:101F7000D7CF1092ED0410922004E091200491E05C
:101F80009E0F90932004F0E02091210430912204D0
:101F9000EE0FFF1FE45EFB4F308727831092220471
:101FA0001092210493E019C0813009F0B9CFE0917B
:101FB000200491E09E0F90932004F0E020912104F2
:101FC00030912204EE0FFF1FE45EFB4F3087278322
:101FD000109222041092210494E090931C04A0CF4C
:101FE000882359F2209121043091220425363105AD
:101FF00008F496CF95E0F1CF811192CFB5CF2D9A0D
:10200000FF91EF91BF91AF919F918F917F916F91D0
:102010005F914F913F912F910F900FBE0F901F90A6
:10202000189580911E04882321F080911E0460E0A1
:1020300086CF2D98E5CFCF92DF92EF92FF920F934C
:102040001F93E82FF92F05C001501109210931090B
:1020500061F1908196239417B9F305C001501109DD
:102060002109310911F1908196239413F7CFC12CE6
:10207000D12CE12CF12C0AC08FEFC81AD80AE80A3B
:10208000F80A0C151D052E053F0579F08081862381
:10209000841791F36C2D7D2D8E2D9F2D1F910F9107
:1020A000FF90EF90DF90CF90089560E070E080E0C7
:1020B00090E01F910F91FF90EF90DF90CF900895E7
:1020C0000F931F93CF93DF93E3E7F3E01382128222
:1020D00088EE93E0A0E0B0E084839583A683B78385
:1020E00022EB31E031832083EFE7F3E013821282A9
:1020F00084839583A683B78384EC91E09183808366
:1021000085EC90E09587848784EC90E097878687BC
:1021100080EC90E0918B808B81EC90E0938B828BB4
:1021200082EC90E0958B848B86EC90E0978B868B8D
:10213000118E128E138E148EECE1F4E010E11183F7
:102140001382C1E6D5E082EE91E09983888308E0AE
:102150000B8384E08D8395E09E838F831A831C8399
:1021600061E00E947C0261E085E00E947C0261E007
:1021700084E00E947C0261E084E00E940F0261E042
:1021800085E00E940F028EE092E099838883CE0161
:102190000E94C70747E061E0CE010E940808E1E520
:1021A000F5E0DF01812F1D928A95E9F7EDE4F5E076
:1021B000D183C08312830383E0E4F5E013821282AB
:1021C00086ED91E091838083118687E28483128774
:1021D00082E083871486ADE2B5E086E015968C93A5
:1021E00015978BE016968C931697E3E2F1E0E49155
:1021F0001796EC931797EFE0F1E0E4911896EC93C3
:10220000189740E85EE360E070E01D964D935D93A3
:102210006D937C935097DF91CF911F910F9108950B
:10222000789484B5826084BD84B5816084BD85B5B1
:10223000826085BD85B5816085BD80916E008160BD
:1022400080936E0010928100809181008260809363
:102250008100809181008160809381008091800065
:102260008160809380008091B10084608093B10090
:102270008091B00081608093B00080917A0084608A
:1022800080937A0080917A00826080937A008091B6
:102290007A00816080937A0080917A0080688093D0
:1022A0007A001092C100E0918F03F0919003C2E098
:1022B000C083E0918B03F0918C031082E0918D0339
:1022C000F0918E0380E1808310929703E091930355
:1022D000F091940386E08083E0919103F091920362
:1022E000808180618083E0919103F09192038081ED
:1022F00088608083E0919103F091920380818068EF
:102300008083E0919103F091920380818F7D80839F
:1023100061E089E00E947C0270E060E089E090E08A
:102320000E946D0961E08AE00E947C0270E060E03A
:102330008AE090E00E946D09F8941092800089E094
:102340008093810080E293E09093890080938800DD
:102350001092850010928400C0936F007894C0930F
:102360001C041092200480911D0460E00E947C02F5
:1023700061E081E00E947C0260E080E00E947C02DB
:1023800061E08DE00E947C0261E08BE00E947C02B3
:1023900061E08CE00E947C0261E083E00E947C02AC
:1023A00061E082E00E947C0261E082E10E947C02A6
:1023B00061E083E10E947C0260E082E10E940F0202
:1023C00060E083E10E940F0281E695E00E94C7076A
:1023D0003DE4E32E35E0F32E10E0CC24C394D12C61
:1023E000B12CA12CE6010A2C01C0CC0F0A94EAF70B
:1023F000F70164816C2B812F0E94FC0062E370E086
:1024000080E090E00E944F03C095F70164816C2347
:10241000812F0E94FC00FFEFAF1ABF0A88E0A816C8
:10242000B10401F7EFEFEE1AFE0A1F5F1031C1F69B
:1024300010E000E0CC24C394D12CC601002E01C0D2
:10244000880F0A94EAF7B82ED82FD0959DE4E92E8C
:1024500095E0F92EC0E0F70164816B298C2F0E9472
:10246000FC0062E370E080E090E00E944F03F7011F
:1024700064816D238C2F0E94FC00FFEFEF1AFF0A8E
:10248000CF5FC03141F70F5F1F4F08301105A9F62C
:102490000E948203C1E0C093240528EE33E030930C
:1024A0002A052093290560932505709326058093BE
:1024B00027059093280586E197E090932C0580935B
:1024C0002B050E948203C0931B0522EE34E030935B
:1024D00021052093200560931C0570931D058093B2
:1024E0001E0590931F058DE197E09093230580933F
:1024F00022050E948203C093120522E836E0309341
:1025000018052093170560931305709314058093A5
:1025100015059093160584E297E090931A05809331
:1025200019050E948203C093090528E938E0309319
:102530000F0520930E0560930A0570930B05809399
:102540000C0590930D058BE297E090931105809315
:1025500010050E948203C093000524EC39E03093FB
:10256000060520930505609301057093020580938D
:1025700003059093040582E397E090930805809308
:1025800007050E948203C093F7042CE83AE03093D9
:10259000FD042093FC046093F8047093F904809385
:1025A000FA049093FB0489E397E09093FF048093EF
:1025B000FE040E948203C093EE0420EA35E03093CB
:1025C000F4042093F3046093EF047093F004809379
:1025D000F1049093F2048CED9BE09093F6048093C9
:1025E000F50462E0809132050E947C020E94820321
:1025F000605D7740810991096093360570933705D6
:10260000809338059093390587E380933F051092B6
:10261000FC021092FB021092FE021092FD020E9438
:102620003D0285E391E0909326038093250386E3A2
:1026300091E090932A03809329031092450580919D
:102640004B05823018F098E090934505809348053B
:1026500062E370E080E090E00E944F0360914C05DF
:1026600080E495E00E94560868EE73E080E090E018
:102670000E944F0360E380E495E00E94790BCBE475
:10268000D6E4CE010197F1F760E380E495E00E9483
:10269000790B2197F1F760E380E495E00E94790BD4
:1026A00083E592E00197F1F760E280E495E00E9413
:1026B000790B60914505606240E080E495E00E94FE
:1026C000920B84E08093460540E06CE080E495E066
:1026D0000E94920B0E94130D82E08093470540E018
:1026E00066E080E495E00E94920B40E062E080E4C6
:1026F00095E00E94920B8BE39FE10197F1F70E9416
:10270000130D88E080934C0560E080E495E00E9422
:10271000560868E971E080E00E942C0D60E971E0E4
:1027200081E00E942C0D68E871E082E00E942C0D8F
:1027300060E871E083E00E942C0D68E771E084E0BE
:102740000E942C0D60E771E085E00E942C0D68E688
:1027500071E086E00E942C0D60E671E087E00E9447
:102760002C0D60E082E00E94A90B67E872E080E433
:1027700095E00E94300A61E083E00E94A90B60E0CE
:1027800080E495E00E94260D61E085E00E94A90B9F
:1027900064E972E080E495E00E94300A61E08CE038
:1027A0000E94A90B60E080E495E00E94260D882439
:1027B0008A9483E0982EA12CB12C00E010E084E2F2
:1027C00095E00E9441098BE195E00E94410982E178
:1027D00095E00E94410989E095E00E94410980E06E
:1027E00095E00E94410987EF94E00E9441098EEE36
:1027F00094E00E9441090E944B1523E630E040E03E
:1028000050E00E94A3156F5F7F4F8F4F9F4F6093E3
:10281000AD027093AE028093AF029093B0028FE04E
:102820000E9415036C019093AC028093AB028EE082
:102830000E9415037C019093AA028093A9022FEFB6
:1028400030E0D6010E941A16A50194010E94A3153A
:1028500029013093A8022093A7022FEF30E0D7017F
:102860000E941A16A50194010E94A315420E531E40
:10287000B201550C880B990B0E94571720E030E0ED
:1028800040EC5FE30E940C189B01AC0160E070E03B
:102890008FE793E40E943B160E941F1777FF02C048
:1028A00070E060E07093A1016093A0010E944B0D65
:1028B00020E030E040EF51E40E94A81687FF84C07A
:1028C00060E08CE00E940F0270E060E083E00E9414
:1028D000B80260E08DE00E940F0270E060E08BE0E3
:1028E0000E94B8026AEF70E082E00E94B80264EFD2
:1028F00071E080E090E00E944F0360EA70E089E0C0
:1029000090E00E946D09CAE0D0E00E944B0D6093F8
:10291000A3027093A4028093A5029093A60221972C
:10292000A1F76CE271E080E090E00E944F0364E167
:1029300070E089E090E00E946D09CAE0D0E00E945A
:102940004B0D6B017C01C0929F02D092A002E092DD
:10295000A102F092A202219791F770E060E082E07C
:102960000E94B8024090A3025090A4026090A50279
:102970007090A60220E030E048E452E4C301B201C6
:102980000E94A81687FD0AC020E030E048E452E427
:10299000C701B6010E94A81687FF24C0A3019201B7
:1029A000C701B6010E94A81687FF20C065E570E048
:1029B00089E090E00E946D090E94CD0964EF71E00A
:1029C00080E090E00E944F030E94DF09011511058D
:1029D00009F4F5CE0E94FE04882309F4F0CE0E948B
:1029E0000000EDCE8091AD0280FFE0CF65E570E0A4
:1029F00089E090E00E946D090E94BB09DFCF8F92B1
:102A00009F92AF92BF92CF92DF92EF92FF92CF93BD
:102A1000DF93EC01688179818A819B816115710561
:102A20008105910521F464E279ED8BE597E02DE1D4
:102A300033EF41E050E00E94A31549015A019B0188
:102A4000AC01A7EAB1E40E94C2156B017C01ACEEB7
:102A5000B4EFA50194010E94D015C60ED71EE81E42
:102A6000F91EF7FE06C081E0C81AD108E10880E827
:102A7000F80AC882D982EA82FB82C701B6019F7731
:102A8000DF91CF91FF90EF90DF90CF90BF90AF900C
:102A90009F908F9008958F929F92AF92BF92CF9206
:102AA000DF92EF92FF926091A2017091A301809159
:102AB000A4019091A501611571058105910521F48D
:102AC00064E279ED8BE597E02DE133EF41E050E0F2
:102AD0000E94A31549015A019B01AC01A7EAB1E488
:102AE0000E94C2156B017C01ACEEB4EFA50194010C
:102AF0000E94D015C60ED71EE81EF91EF7FE06C0AE
:102B000081E0C81AD108E10880E8F80AC092A20161
:102B1000D092A301E092A401F092A501C701B601F1
:102B20009F77FF90EF90DF90CF90BF90AF909F90F6
:102B30008F9008956093A2017093A3018093A401E4
:102B40009093A5010895052E97FB1EF400940E9412
:102B5000BA1557FD07D00E94D51507FC03D04EF4D7
:102B60000C94BA1550954095309521953F4F4F4F95
:102B70005F4F089590958095709561957F4F8F4F29
:102B80009F4F08950E94F715A59F900DB49F900D3B
:102B9000A49F800D911D11240895B7FF0C94C215B8
:102BA0000E94C215821B930B0895A1E21A2EAA1B44
:102BB000BB1BFD010DC0AA1FBB1FEE1FFF1FA217ED
:102BC000B307E407F50720F0A21BB30BE40BF50BEA
:102BD000661F771F881F991F1A9469F76095709573
:102BE000809590959B01AC01BD01CF010895A29FF6
:102BF000B001B39FC001A39F700D811D1124911DD1
:102C0000B29F700D811D1124911D089597FB072E11
:102C100016F4009407D077FD09D00E94211607FC16
:102C200005D03EF4909581959F4F089570956195DC
:102C30007F4F08950E94F715B7FF0895821B930BED
:102C40000895AA1BBB1B51E107C0AA1FBB1FA617F3
:102C5000B70710F0A61BB70B881F991F5A95A9F745
:102C600080959095BC01CD010895EE0FFF1F059052
:102C7000F491E02D09945058BB27AA270E945316BF
:102C80000C94CD170E94BF1738F00E94C61720F091
:102C900039F49F3F19F426F40C94BC170EF4E09518
:102CA000E7FB0C94B617E92F0E94DE1758F3BA170A
:102CB000620773078407950720F079F4A6F50C9452
:102CC00000180EF4E0950B2EBA2FA02D0B01B901C0
:102CD00090010C01CA01A0011124FF27591B99F092
:102CE000593F50F4503E68F11A16F040A22F232F9E
:102CF000342F4427585FF3CF469537952795A795EE
:102D0000F0405395C9F77EF41F16BA0B620B730B94
:102D1000840BBAF09150A1F0FF0FBB1F661F771F05
:102D2000881FC2F70EC0BA0F621F731F841F48F4BA
:102D3000879577956795B795F7959E3F08F0B0CF43
:102D40009395880F08F09927EE0F9795879508952A
:102D50000E94921708F481E008950E94C1160C9415
:102D6000CD170E94C61758F00E94BF1740F029F4F3
:102D70005F3F29F00C94B61751110C9401180C9474
:102D8000BC170E94DE1768F39923B1F3552391F322
:102D9000951B550BBB27AA2762177307840738F0CA
:102DA0009F5F5F4F220F331F441FAA1FA9F335D027
:102DB0000E2E3AF0E0E832D091505040E695001CDB
:102DC000CAF72BD0FE2F29D0660F771F881FBB1F95
:102DD000261737074807AB07B0E809F0BB0B802D73
:102DE000BF01FF2793585F4F3AF09E3F510578F09F
:102DF0000C94B6170C9401185F3FE4F3983ED4F39B
:102E0000869577956795B795F7959F5FC9F7880F72
:102E1000911D9695879597F90895E1E0660F771FC4
:102E2000881FBB1F621773078407BA0720F0621B55
:102E3000730B840BBA0BEE1F88F7E09508950E9480
:102E400026176894B1110C94011808950E94E61792
:102E500088F09F5798F0B92F9927B751B0F0E1F05B
:102E6000660F771F881F991F1AF0BA95C9F714C00B
:102E7000B13091F00E940018B1E008950C94001850
:102E8000672F782F8827B85F39F0B93FCCF3869544
:102E900077956795B395D9F73EF4909580957095A1
:102EA00061957F4F8F4F9F4F0895E89409C097FB1E
:102EB0003EF490958095709561957F4F8F4F9F4F11
:102EC0009923A9F0F92F96E9BB279395F695879555
:102ED00077956795B795F111F8CFFAF4BB0F11F418
:102EE00060FF1BC06F5F7F4F8F4F9F4F16C08823BF
:102EF00011F096E911C0772321F09EE8872F762FF5
:102F000005C0662371F096E8862F70E060E02AF035
:102F10009A95660F771F881FDAF7880F9695879521
:102F200097F90895990F0008550FAA0BE0E8FEEFF6
:102F300016161706E807F907C0F012161306E4077D
:102F4000F50798F0621B730B840B950B39F40A2676
:102F500061F0232B242B252B21F408950A2609F454
:102F6000A140A6958FEF811D811D089597F99F6758
:102F700080E870E060E008959FEF80EC0895002401
:102F80000A941616170618060906089500240A94CE
:102F900012161306140605060895092E0394000C54
:102FA00011F4882352F0BB0F40F4BF2B11F460FFE3
:102FB00004C06F5F7F4F8F4F9F4F089557FD90580C
:102FC000440F551F59F05F3F71F04795880F97FBED
:102FD000991F61F09F3F79F08795089512161306A7
:102FE0001406551FF2CF4695F1DF08C016161706D6
:102FF0001806991FF1CF869571056105089408950B
:10300000E894BB2766277727CB0197F908950E949C
:10301000921708F48FEF08950E941F180C94CD1793
:103020000E94BF1738F00E94C61720F0952311F0B8
:103030000C94B6170C94BC1711240C9401180E9420
:10304000DE1770F3959FC1F3950F50E0551F629FF7
:10305000F001729FBB27F00DB11D639FAA27F00DF1
:10306000B11DAA1F649F6627B00DA11D661F829F18
:103070002227B00DA11D621F739FB00DA11D621FFD
:10308000839FA00D611D221F749F3327A00D611D1A
:10309000231F849F600D211D822F762F6A2F1124FC
:1030A0009F5750409AF0F1F088234AF0EE0FFF1F2F
:1030B000BB1F661F771F881F91505040A9F79E3F86
:1030C000510580F00C94B6170C9401185F3FE4F39F
:1030D000983ED4F3869577956795B795F795E795DC
:1030E0009F5FC1F7FE2B880F911D9695879597F9E5
:1030F00008950E949217880B990B0895F894FFCFBA
:103100002E2A3A00023E02003E223E003E0A0E00F7
:10311000007F08087F003C42423C003E40403E00A9
:1031200000003C42423C007E12120C00005E000097
:10313000F80CF80CF80078A8A8B8000808F80808F7
:10314000FE12127CB0B080B8A8E808F808E890E059
:1031500000110A048A5140404040518A040A11007B
:103160000E11111F1B1B1F00000E151B0E0E000061
:1031700001030509090B1B1801030F0F0F030100C1
:10318000000103161C0800001F151F1F0E0A1B005C
:10319000040E0E0E1F000400000A1F1F0E04000084
:1031A000FF00010000000000400014005400000077
:1031B00000008E0161013E0937015A0147013801C3
:1031C0000000000034059404C1048105F204D00419
:1031D000E40400000000260D94043E093D090000AF
:1031E00000000808C707B707B6078A07490740075E
:1031F000EC069B06A90798069C07940637018406EF
:10320000740639061C06EB05A1050000000008083D
:10321000C707B707B6078A0749074007EC069B06AA
:10322000A90798069C079406370142082E0818083B
:103230001C06EB05A1056E616E00696E66006F7677
:1032400066004661696C656420746F207265616414
:103250002066726F6D204448542073656E736F72E0
:1032600021000D0A0048756D69646974793A20007F
:1032700054656D70657261747572653A2000543AD8
:103280000020483A00250048656C6C6F205065733B
:0C329000746F21004C6F76652075000003
:00000001FF
